:100000000C945D000C9444050C941D050C94850023
:100010000C9485000C9485000C9485000C9485004C
:100020000C9485000C9485000C9485000C9485003C
:100030000C9485000C946B050C9485000C94850041
:100040000C94D3040C9485000C9436030C94100388
:100050000C9485000C9485000C9485000C9485000C
:100060000C9492050C948500000000080002010029
:100070000003040700000000000000000000000072
:10008000240027002A0000000000250028002B0083
:10009000040404040404040402020202020203032E
:1000A0000303030301020408102040800102040836
:1000B00010200102040810203D0D11241FBECFEFB7
:1000C000D8E0DEBFCDBF12E0A0E0B1E0E8E3FCE1A4
:1000D00002C005900D92A630B107D9F723E0A6E043
:1000E000B2E001C01D92AB37B207E1F710E0CDE5F9
:1000F000D0E004C02197FE010E940F0ECC35D1073D
:10010000C9F70E9416080C941A0E0C9400000E9465
:10011000150E4F925F926F927F92EF92FF920F9324
:100120001F93CF93DF93CDB7DEB7A1970FB6F894A7
:10013000DEBF0FBECDBF7C01FA01CB0119A2223078
:1001400008F42AE08E010F5D1F4F422E512C612CC6
:10015000712CBF01A30192010E94AF0DF901CA01E8
:10016000015011096A3014F4605D01C0695CD80166
:100170006C93232B242B252B61F7B801C7010E9418
:10018000F902A1960FB6F894DEBF0FBECDBFDF9186
:10019000CF911F910F91FF90EF907F906F905F90A4
:1001A0004F900895CF92DF92EF92FF920F931F939B
:1001B000CF93DF93EC016A017B01E881F981019023
:1001C000F081E02D6DE209958C0144275527BA0195
:1001D0004C195D096E097F092AE0CE010E94890051
:1001E000800F911FDF91CF911F910F91FF90EF90A2
:1001F000DF90CF900895CF92DF92EF92FF920F930E
:100200001F93CF93DF936C017A018B01C0E0D0E0A4
:10021000CE15DF0589F0D8016D918D01D601ED91E4
:10022000FC910190F081E02DC6010995892B11F414
:100230007E0102C02196ECCFC701DF91CF911F91C3
:100240000F91FF90EF90DF90CF900895FC01538DB8
:10025000448D252F30E0842F90E0821B930B5417A0
:1002600010F0CF96089501970895FC01918D828D2D
:10027000981761F0828DDF01A80FB11D5D968C91FA
:10028000928D9F5F9F73928F90E008958FEF9FEF05
:100290000895FC01918D828D981731F0828DE80FC1
:1002A000F11D858D90E008958FEF9FEF0895FC017B
:1002B000918D228D892F90E0805C9F4F821B910948
:1002C0008F739927089586EC92E00E94570121E0F0
:1002D000892B09F420E0822F0895FC01848DDF0131
:1002E000A80FB11DA35ABF4F2C91848D90E00196A9
:1002F0008F739927848FA689B7892C93A089B18998
:100300008C9180648C93938D848D981306C00288A1
:10031000F389E02D80818F7D80830895EF92FF9295
:100320000F931F93CF93DF93EC0181E0888F9B8D18
:100330008C8D981305C0E889F989808185FD24C0DA
:10034000F62E0B8D10E00F5F1F4F0F731127E02E5D
:100350008C8DE8120CC00FB607FCFACFE889F9893A
:10036000808185FFF5CFCE010E946D01F1CF8B8D8D
:10037000FE01E80FF11DE35AFF4FF0820B8FEA896F
:10038000FB898081806207C0EE89FF896083E889EC
:10039000F98980818064808381E090E0DF91CF9152
:1003A0001F910F91FF90EF900895CF93DF93EC0191
:1003B000888D8823C9F0EA89FB89808185FD05C085
:1003C000A889B9898C9186FD0FC00FB607FCF5CFBF
:1003D000808185FFF2CFA889B9898C9185FFEDCF07
:1003E000CE010E946D01E7CFDF91CF91089580E0AB
:1003F00090E0892B29F00E94630181110C94000088
:1004000008953FB7F8948091BE029091BF02A091E9
:10041000C002B091C10226B5A89B05C02F3F19F0BC
:100420000196A11DB11D3FBFBA2FA92F982F882774
:10043000820F911DA11DB11DBC01CD0142E0660FCF
:10044000771F881F991F4A95D1F70895089585ED64
:100450008093BC008091BC0084FDFCCF1092080208
:10046000089540917402262F30E0240F311D21326F
:100470003105DCF4209108022430C9F4FC0180E04D
:1004800090E0861758F4309174022191DC01AE5A45
:10049000BD4FA30FB11D2C930196F3CF8091740231
:1004A000680F6093740280E0089581E0089582E00F
:1004B0000895089581E090E030910C0220910B02A4
:1004C000321710F480E090E091958195910908959C
:1004D00080910C0290910B02891730F48F5F80930A
:1004E0000C0280E090E008958FEF9FEF08958091D7
:1004F0000B0290E020910C02821B91090895CF928B
:10050000DF92EF92FF920F931F93CF93DF937C01C3
:10051000262F972F8A0180915102882391F0C62FB0
:10052000D72F6E01C40ED51ECC15DD0571F0699173
:10053000D701ED91FC910190F081E02DC701099563
:10054000F3CF642F822F0E943102C801DF91CF9137
:100550001F910F91FF90EF90DF90CF900895CF9370
:10056000DF931F92CDB7DEB769832091510222231A
:10057000D1F020910902203240F021E030E0FC016E
:100580003383228380E090E015C080910A02E82F37
:10059000F0E0EF5CFD4F998190838F5F80930A02BA
:1005A0008093090205C061E0CE0101960E943102EC
:1005B00081E090E00F90DF91CF910895089580E061
:1005C00090E0089580911402E82FE170F0E0EE0FC2
:1005D000FF1FEE0FFF1FEB5EFD4F80819181A28117
:1005E000B3810196A11DB11D80839183A283B38342
:1005F00008956115710579F0FB0101900020E9F77C
:100600003197AF01461B570BDC01ED91FC91028045
:10061000F381E02D099480E090E008950C94F902B4
:100620001F920F920FB60F9211242F933F934F9367
:100630005F936F937F938F939F93AF93BF93EF934A
:10064000FF9386EC92E00E946D01FF91EF91BF91C4
:10065000AF919F918F917F916F915F914F913F915A
:100660002F910F900FBE0F901F9018951F920F9211
:100670000FB60F9211242F938F939F93EF93FF93B5
:10068000E091D602F091D7028081E091DC02F091F6
:10069000DD0282FD12C090818091DF028F5F8F7337
:1006A0002091E002821751F0E091DF02F0E0EA537E
:1006B000FD4F958F8093DF0201C08081FF91EF9104
:1006C0009F918F912F910F900FBE0F901F901895B3
:1006D00090E0FC01E859FF4F3491FC01EC55FF4FCD
:1006E0002491FC01E057FF4FE491EE2309F43BC055
:1006F000332339F1333091F038F43130A9F032300E
:1007000001F584B58F7D12C0373091F03830A1F0FB
:100710003430B9F4809180008F7D03C080918000D7
:100720008F77809380000DC084B58F7784BD09C01A
:100730008091B0008F7703C08091B0008F7D80934F
:10074000B000F0E0EE0FFF1FEA57FF4FA591B49104
:100750008FB7F894EC91611103C020952E2301C04E
:100760002E2B2C938FBF0895CF93DF9390E0FC0145
:10077000EC55FF4F2491FC01E057FF4F84918823F3
:1007800061F190E0880F991FFC01E458FF4FC5917B
:10079000D491FC01EA57FF4FA591B491611109C0B2
:1007A0009FB7F8948881209582238883EC912E232B
:1007B0000BC0623061F49FB7F8943881822F809526
:1007C00083238883EC912E2B2C939FBF06C08FB779
:1007D000F894E8812E2B28838FBFDF91CF91089565
:1007E0008E3008F08E508770806480937C008091FA
:1007F0007A00806480937A0080917A0086FDFCCF35
:10080000809178002091790090E0922B089580915A
:100810002F02843031F481E08093110210922F0274
:1008200003C08F5F80932F0290911D029130E1F5FC
:10083000809113028530A9F59093120280911402E1
:100840008F5F809314021092130280FD15C0809177
:10085000190290911A02A0911B02B0911C02909370
:10086000100280930F021092190210921A02109235
:100870001B0210921C0218C0809115029091160262
:10088000A0911702B09118029093100280930F026A
:10089000109215021092160210921702109218026E
:1008A00003C08F5F8093130280E00E94F0038E31BB
:1008B00091058CF0863991058CF0883621E09207FD
:1008C00084F0873122E092077CF0883F92407CF4EC
:1008D00084E090E00EC080E090E00BC081E090E00A
:1008E00008C082E090E005C083E090E002C08FEF96
:1008F0009FEF40912E0220910A0130910B01442379
:1009000089F010922E028217930791F090930901BB
:100910008093080190930B0180930A0181E08093FA
:100920001E0208958217930719F081E080932E022A
:1009300008958F929F92AF92BF92CF92DF92EF92E3
:10094000FF926B017C010E9401024B015C01C1140A
:10095000D104E104F104F1F00E940102DC01CB01B9
:1009600088199909AA09BB09883E9340A105B105D8
:1009700070F321E0C21AD108E108F10888EE880E70
:1009800083E0981EA11CB11CC114D104E104F10440
:1009900019F7DDCFFF90EF90DF90CF90BF90AF9031
:1009A0009F908F9008951F920F920FB60F9211246F
:1009B0002F933F938F939F93AF93BF938091C202E6
:1009C0009091C302A091C402B091C5023091BD02C2
:1009D00023E0230F2D3720F40196A11DB11D05C082
:1009E00026E8230F0296A11DB11D2093BD0280931E
:1009F000C2029093C302A093C402B093C502809137
:100A0000BE029091BF02A091C002B091C1020196B6
:100A1000A11DB11D8093BE029093BF02A093C0029E
:100A2000B093C102BF91AF919F918F913F912F9150
:100A30000F900FBE0F901F9018951F920F920FB638
:100A40000F9211242F933F934F935F936F937F9354
:100A50008F939F93AF93BF93EF93FF93E091020126
:100A6000F09103010995FF91EF91BF91AF919F9193
:100A70008F917F916F915F914F913F912F910F9047
:100A80000FBE0F901F9018951F920F920FB60F92E6
:100A900011242F933F934F935F936F937F938F9383
:100AA0009F93AF93BF93EF93FF93E0910001F09179
:100AB00001010995FF91EF91BF91AF919F918F91A6
:100AC0007F916F915F914F913F912F910F900FBE4A
:100AD0000F901F9018951F920F920FB60F9211242E
:100AE0002F933F934F935F936F937F938F939F9336
:100AF000AF93BF93EF93FF93E0910D02F0910E023D
:100B00000995FF91EF91BF91AF919F918F917F9147
:100B10006F915F914F913F912F910F900FBE0F906A
:100B20001F9018951F920F920FB60F9211242F93BA
:100B30003F934F935F936F937F938F939F93AF9365
:100B4000BF93EF93FF938091B900887F803609F4BB
:100B50009CC068F5883209F45BC090F4803109F4D8
:100B600054C038F4882309F4F6C0883009F44DC025
:100B7000F6C0883109F44CC0803209F45DC0EFC082
:100B8000803409F468C048F4803309F455C08833D0
:100B900009F0E5C080939902D8C0803509F44FC0B0
:100BA000883509F45DC0883409F0D9C0D6C08839C9
:100BB00009F4C7C0A8F4883709F467C038F4883648
:100BC00009F463C0803709F460C0C9C0883809F4EB
:100BD000B8C0803909F45FC0803809F0C0C05BC07C
:100BE000803B09F486C038F4803A09F466C0883A3C
:100BF00009F47FC0B4C0803C09F4A7C0883C09F464
:100C0000A4C0883B09F48AC0AAC08091BC0210C06D
:100C10009091BB028091BA02981770F5E091BB02E7
:100C200081E08E0F8093BB02F0E0E656FD4F80819D
:100C30008093BB0085EC86C0809399028EC0E091C2
:100C4000BB0281E08E0F8093BB028091BB00F0E07D
:100C5000E656FD4F80839091BB028091BA026EC030
:100C6000E091BB0281E08E0F8093BB028091BB00BC
:100C7000F0E0E656FD4F80838091070281116DC040
:100C800081E08093060284EA61C083E080930802D9
:100C900010929802CFCF80919802803208F051C014
:100CA000E091980281E08E0F809398028091BB00C2
:100CB000F0E0E858FD4F8083BDCF85EC8093BC0009
:100CC0001092080280919802803230F4E0919802EC
:100CD000F0E0E858FD4F10826091980270E0E091DA
:100CE0007602F091770288E792E0099510929802D7
:100CF00036C084E08093080210927502109274024C
:100D0000E0917202F0917302099580917402811151
:100D100005C081E08093740210925202E091750246
:100D200081E08E0F80937502F0E0EE5AFD4F8081D6
:100D30008093BB009091750280917402981708F41B
:100D400079CF85E88093BC000AC085EC8093BC0015
:100D50001092080204C0109299020E942702FF918B
:100D6000EF91BF91AF919F918F917F916F915F9123
:100D70004F913F912F910F900FBE0F901F9018959C
:100D8000CF93FC01C48121E020935102C093300233
:100D900010920A02109209028385682B83E693E081
:100DA0000E94AF0280910902813208F046C0909102
:100DB00008029111FCCF92E09093080291E0909389
:100DC00007029FEF909399021092BB028093BA02A0
:100DD000A1E3B2E02AE932E0F9019E2F921B9817B5
:100DE00018F49D919193F9CF1092BC028091BC02AE
:100DF000CC0FC82BC093BC0280910602813061F4F5
:100E0000109206028091BC028093BB008091BC00CE
:100E100083FDF8CF85EC01C085EE8093BC00809106
:100E200008028230E1F3809199028F3F31F0809186
:100E30009902803211F08091990210920A02109268
:100E4000090210925102CF9108950F931F93CF93EF
:100E50008C01C62F0E94C0066C2F6460C8010E94DE
:100E6000C0066C2F6B7FC8010E94C00683EC90E027
:100E70000197F1F7CF911F910F910895FF920F9372
:100E80001F93CF93DF931F92CDB7DEB78C01F62E61
:100E9000962F907F692F642BC80149830E942507F4
:100EA00080E1F89EB00111244981642BC8010F90A4
:100EB000DF91CF911F910F91FF900C94250741E096
:100EC0000E943E0781E090E00895CF93DF93BC013C
:100ED00086EC92E00E94F902EC0162E072E086EC9E
:100EE00092E00E94F9028C0F9D1FDF91CF9108952F
:100EF000AB01770F660B770B77FD0C94D2002AE0DD
:100F00000C948900CF93DF93CDB7DEB728970FB647
:100F1000F894DEBF0FBECDBF28E0ECE0F1E0DE01CB
:100F2000119601900D922A95E1F7209177032617EB
:100F300010F46FEF620FFE013196E60FF11DE60F20
:100F4000F11D9081682F690F606840E08FE693E0A3
:100F500028960FB6F894DEBF0FBECDBFDF91CF91BC
:100F60000C943E07CF93DF93AC01990F660B770B80
:100F700077FF05C086EC92E00E94D20005C02AE00F
:100F800086EC92E00E948900EC0162E072E086EC5F
:100F900092E00E94F9028C0F9D1FDF91CF9108957E
:100FA0002FB7F8948091C2029091C302A091C4021D
:100FB000B091C5022FBF8093CE029093CF02A09331
:100FC000D002B093D102E091C602F091C70204842E
:100FD000F585E02D86EC92E0099597FF26C02FB7A6
:100FE000F8948091C2029091C302A091C402B09182
:100FF000C5022FBF4091CE025091CF026091D00226
:101000007091D102841B950BA60BB70B4091CA02BD
:101010005091CB026091CC027091CD02841795075C
:10102000A607B70780F28FEF9FEF0895CF93DF9366
:1010300000D000D0CDB7DEB7789484B5826084BD8F
:1010400084B5816084BD85B5826085BD85B58160CC
:1010500085BD80916E00816080936E00109281004A
:101060008091810082608093810080918100816005
:1010700080938100809180008160809380008091C6
:10108000B10084608093B1008091B0008160809352
:10109000B00080917A00846080937A0080917A0019
:1010A000826080937A0080917A00816080937A00D8
:1010B00080917A00806880937A001092C10061E08C
:1010C00087E00E94B40361E088E00E94B40360E01E
:1010D00082E00E94B40361E084E00E94B40361E016
:1010E00086E00E94B40361E087E00E94680361E04B
:1010F00088E00E9468038091B100887F81608093BE
:10110000B10081E00E94F0038C0128E230E0DC01B4
:101110000E94F40D2EEE30E040E050E00E94850D7C
:10112000309323022093220210932502009324027D
:1011300064E6629FC001639F900D11249093270283
:101140008093260210922D0210922C0210922802F7
:1011500010921D0210920C0210920B0210920A02C1
:10116000109209021092080281E080930702109207
:10117000060261E082E10E94680361E083E10E946F
:1011800068038091B9008E7F8093B9008091B90087
:101190008D7F8093B90088E48093B80085E48093C4
:1011A000BC001092740380917903823018F098E0AB
:1011B000909374038093770362E370E080E090E0A3
:1011C0000E94990460917A038FE693E00E94C00622
:1011D00068EE73E080E090E00E94990460E38FE69F
:1011E00093E00E9425070BE416E4C8010197F1F78C
:1011F00060E38FE693E00E942507C8010197F1F7AD
:1012000060E38FE693E00E94250783E592E0019773
:10121000F1F760E28FE693E00E9425076091740386
:10122000606240E08FE693E00E943E0784E0809396
:10123000750340E06CE08FE693E00E943E0740E0DB
:1012400061E08FE693E00E943E075BE3E52E5FE1FD
:10125000F52EC7010197F1F712E01093760340E0F5
:1012600066E08FE693E00E943E0740E062E08FE692
:1012700093E00E943E07C7010197F1F788E0809351
:101280007A0360E08FE693E00E94C00660E080E0B1
:101290000E94820764E471E08FE693E00E940E03EF
:1012A00060912602709127028FE693E00E947807F2
:1012B00067E471E08FE693E00E940E0360E08BE04C
:1012C0000E9482076DE471E08FE693E00E940E03B6
:1012D00061E080E00E94820761E571E08FE693E0C3
:1012E0000E940E036DE571E08FE693E00E940E030D
:1012F00060910601709107018FE693E00E947807E4
:101300006BE571E08FE693E00E940E0360910401AB
:10131000709105018FE693E00E94780780E1809349
:101320008100109280001093210288EA91E6909348
:10133000200280931F02909387008093860082E1B1
:101340008093810087E094E090930E0280930D02D9
:1013500081E080936F0010928100109285001092BE
:10136000840080912102806180938100E091D60207
:10137000F091D7021083E091D202F091D302108253
:10138000E091D402F091D5028FEC80831092DE02BE
:10139000E091DA02F091DB0286E08083E091D802EE
:1013A000F091D902808180618083E091D802F09130
:1013B000D902808188608083E091D802F091D902BF
:1013C000808180688083E091D802F091D902808189
:1013D0008F7D808380E691E00E9465076EEE462E49
:1013E000512C612C712CAA24AA94B12C2224239470
:1013F000312CF4E68F2E912C80911E02882309F463
:10140000D8C010921E02809108019091090197FDA9
:10141000D0C020911D0221119BC08230910509F09E
:1014200054C081E080931D021092150210921602A2
:1014300010921702109218021092190210921A02BA
:1014400010921B0210921C021092140210921302AE
:101450001092120210922D0210922C0210922B0266
:1014600010922A028093290260E087E00E946803BC
:1014700061E088E00E9468036091280284E00E9495
:10148000680382EE92E090930101809300018091C5
:101490006900836080936900E89A789461E08BE04A
:1014A0000E9482076AE871E08FE693E00E940E03D3
:1014B0006CE871E086EC92E00E940E0380912602B7
:1014C000909127020E94B20774C084309105B1F454
:1014D0001091280281E018271093280260E08BE029
:1014E0000E948207112319F06BE971E002C06DE4DC
:1014F00071E08FE693E00E940E035BC0009761F4F9
:101500008091060190910701893091050CF051C03E
:101510008C010F5F1F4F0EC0019709F04AC08091E8
:10152000060190910701823091050CF442C08C01B4
:1015300001501109109307010093060161E08DE04D
:101540000E948207B8018FE693E00E94780731C0BD
:10155000213079F5039769F510921D0261E083E06F
:101560000E94B40361E083E00E94680360E088E0C9
:101570000E946803E898E6E2F2E0F0930101E0934C
:10158000000161E082E00E9482076FE971E08FE66E
:1015900093E00E940E0361E08BE00E94820767EAFD
:1015A00071E08FE693E00E940E0380E691E00E94D6
:1015B000650780911102882309F454C081E00E94DC
:1015C000F0037C0180912402909125029C012B5F05
:1015D0003F4F2E153F052CF00597E816F9060CF045
:1015E0003FC028E230E0D7010E94F40DA301920130
:1015F0000E94850D3093230220932202F4E6F29F8D
:101600008001F39F100D11241093270200932602EE
:1016100060E082E00E948207B8018FE693E00E94BA
:10162000780780912602909127020A971CF460EABD
:1016300071E002C067E471E08FE693E00E940E0360
:10164000F0922502E09224026CE871E086EC92E0D0
:101650000E940E0380912602909127020E94B207F9
:101660001092110280911D02813009F039C18091E0
:101670001202882309F434C11092120200910F0261
:101680001091100269EA71E086EC92E00E940E036C
:1016900080910F02909110020E94B207809129025E
:1016A000882319F0109229021BC144E6409F700163
:1016B000419FF00C112461E082E00E948207B70193
:1016C0008FE693E00E94780780E1E81687E2F8064B
:1016D0002CF061E086E00E94820707C09AE0E916DC
:1016E000F1041CF460EA71E002C067E471E08FE687
:1016F00093E00E940E03E0900F02F0901002009120
:101700002202109123020E191F0962ED71E086EC8E
:1017100092E00E940E03C8010E94B20780912A0243
:1017200090912B02EF2841F46801C81AD90ACC0C19
:10173000DD1CCC0CDD1C3CC09801281B390B8091B2
:10174000060190910701289F7001299FF00C389F96
:10175000F00C11242091040130910501029FC00179
:10176000039F900D129F900D1124E80EF91E6DED50
:1017700071E086EC92E00E940E03C7010E94B2075E
:10178000C8010196039730F09CEF8FEF34E0C32E31
:10179000D12C05C09EEF8FEF22E0C22ED12CCE14AB
:1017A000DF0434F0C92ED82ECE14DF040CF4670108
:1017B00069ED71E086EC92E00E940E03C6010E9482
:1017C000B20780912C0290912D028C0D9D1D90935B
:1017D0002D0280932C0210932B0200932A0264EEB8
:1017E00071E086EC92E00E940E0380912C029091B1
:1017F0002D020E94B20780912C0290912D028F3F02
:10180000910529F024F0B0922D02A0922C02809133
:101810002C0290912D021816190624F030922D02F8
:1018200020922C0280912C0290912D028501081BA0
:10183000190BC8010E94B20761E083E00E94B40363
:101840000115110511F460E004C00F3F110529F4E2
:1018500061E083E00E94680343C0EBE6F0E084911E
:101860008330F9F048F48130B9F08230A1F584B5C5
:10187000806284BD08BD34C08730E9F0883019F13A
:10188000843049F5809180008062809380001093BD
:101890008B0000938A0024C084B5806884BD07BD96
:1018A0001FC0809180008068809380001093890021
:1018B0000093880015C08091B00080688093B000CC
:1018C0000093B3000DC08091B00080628093B0009F
:1018D0000093B40005C0003811050CF0B9CFB3CFA8
:1018E00080911D02813009F4A2C086EC92E00E9432
:1018F0005701892B09F49BC00E94D007FC0197FD7A
:1019000011C08D32910591F0C0970A9778F0E0915F
:10191000C602F091C7020284F385E02D86EC92E0C6
:101920000995EACFC12CD12C76012DC020E030E002
:10193000A901F12CE130F10509F07CC0E091C6026B
:10194000F091C7020284F385E02D86EC92E02983B2
:101950003A834B835C8309950E94D007FC01C097B2
:1019600029813A814B815C810A9720F3E130F105AE
:1019700009F3FF2009F47EC0CC24DD247601C21ACD
:10198000D30AE40AF50AC60189309105D0F4D09251
:101990000501C092040164EF71E086EC92E00E94C0
:1019A0000E03C6010E94B20761E08FE00E94820729
:1019B00060910401709105018FE693E00E94780721
:1019C00036C096012A50310926393F4080F5D09221
:1019D0002702C0922602B4010E94E00D70932302F8
:1019E0006093220260E082E00E948207B6018FE6E7
:1019F00093E00E94780769EF71E08FE693E00E9420
:101A00000E036CE871E086EC92E00E940E03609198
:101A100026027091270286EC92E00E9478078EEFF2
:101A200091E00E94650710922B0210922A020E94F8
:101A3000F701E2CCED32F105D1F0CF01C0970A9762
:101A400008F07CCFAAE0B0E00E94A40D8F01FF0F48
:101A5000220B330BDC01CB01800F911FA21FB31FA0
:101A60009C01AD01205331094109510967CFFF2481
:101A7000F39464CF69017A0186CFE6ECF2E0138239
:101A8000128288EE93E0A0E0B0E084839583A68381
:101A9000B78328E131E03183208325EC30E03587BE
:101AA000248724EC30E03787268720EC30E0318B28
:101AB000208B21EC30E0338B228B22EC30E0358B15
:101AC000248B26EC30E0378B268B118E128E138EF2
:101AD000148EE3E6F3E01382128284839583A68357
:101AE000B7838AE291E091838083EFE6F3E013828B
:101AF00012828CE391E09183808387E2848380E18A
:101B0000818782E0828713860895052E97FB1EF455
:101B100000940E949C0D57FD07D00E94AF0D07FC5A
:101B200003D04EF40C949C0D509540953095219522
:101B30003F4F4F4F5F4F08959095809570956195F9
:101B40007F4F8F4F9F4F08950E94D10DA59F900DFD
:101B5000B49F900DA49F800D911D11240895A1E2C2
:101B60001A2EAA1BBB1BFD010DC0AA1FBB1FEE1F17
:101B7000FF1FA217B307E407F50720F0A21BB30B62
:101B8000E40BF50B661F771F881F991F1A9469F7DE
:101B900060957095809590959B01AC01BD01CF013A
:101BA0000895A29FB001B39FC001A39F700D811D36
:101BB0001124911DB29F700D811D1124911D089556
:101BC00097FB072E16F4009407D077FD09D00E94EA
:101BD000FB0D07FC05D03EF4909581959F4F08952D
:101BE000709561957F4F08950E94D10DB7FF0895BC
:101BF000821B930B0895AA1BBB1B51E107C0AA1FB0
:101C0000BB1FA617B70710F0A61BB70B881F991F9D
:101C10005A95A9F780959095BC01CD010895EE0FD6
:101C2000FF1F0590F491E02D099481E090E0F89475
:081C30000C941A0EF894FFCF8A
:101C38002602260202000400FFFFFFFF000040000A
:101C480014005400000000008E01FB002601D5019D
:101C580057013501490100000000AF027F02DF0291
:101C68005902770268025A02000000005F07FB0071
:101C7800DF02DE0254200052504D2020004357203E
:101C88000043203052504D202020202000422000C8
:101C9800696E707574204B693A28302D3929206F88
:101CA80072207461726765742073706565643A2088
:101CB8002831302D3339393929005300746172675E
:101CC80065742073706565643A200043435700309B
:101CD80052504D20202000420048616C6C207075E5
:101CE8006C736520696E203135306D733A207370DE
:101CF8006565642F31303020202D2D2D2D2D2D2D73
:101D08002000687020653A2000736574206269615C
:101D1800733A20005365742050574D2076616C75D6
:101D2800653A20004B693A200052504D200052502D
:061D38004D000D0A000041
:00000001FF
